:020000040800F2
:10000000A8060020B90100087B2E0008E12C00089A
:10001000792E0008D91F00085930000800000000A0
:10002000000000000000000000000000A92F0008F0
:10003000DB1F0008000000007D2E000807300008CC
:10004000D3010008D3010008D3010008D301000840
:10005000D3010008D3010008D3010008D301000830
:10006000D3010008D3010008D3010008D301000820
:10007000D3010008D3010008D3010008D301000810
:10008000D3010008D3010008D3010008D301000800
:10009000D3010008D3010008D3010008D3010008F0
:1000A000D3010008D3010008D3010008D3010008E0
:1000B000D3010008D301000800000000D3010008AC
:1000C000D30100080000000000000000D301000878
:1000D00000000000D3010008D30100080000000068
:1000E000D3010008D3010008D301000800F002F892
:1000F00000F053F80AA090E8000C82448344AAF16F
:100100000107DA4501D100F048F8AFF2090EBAE86C
:100110000F0013F0010F18BFFB1A43F0010318473B
:10012000DC720000FC720000103A24BF78C878C16D
:10013000FAD8520724BF30C830C144BF04680C60ED
:10014000704700000023002400250026103A28BF35
:1001500078C1FBD8520728BF30C148BF0B60704739
:10016000672906F07986642900F0B880732900F0C9
:10017000B283002070471FB500F048FC0400002047
:10018000002105F04FFD401C60600020002105F0BB
:1001900033FDE0601FBD10B510BD00F0ABFD114692
:1001A000FFF7E9FF04F06EFE01F054F803B4FFF727
:1001B000F2FF03BC01F0C2FA094880470948004732
:1001C000FEE7FEE7FEE7FEE7FEE7FEE7FEE7FEE707
:1001D000FEE7FEE704480549054A064B7047000064
:1001E00009300008ED000008A8000020A806002043
:1001F000A8020020A80200200FB41CB5074B06AAD5
:100200007B4469460090059800F03BFB002069465E
:1002100000F04AFB1CBC5DF814FB0000A5060000C2
:100220002DE9F0410E460446002020622046E16898
:10023000884730B3252805D0D4E901219047206AAA
:10024000401CF2E7E168204600278847050018D0E7
:10025000A5F14100192802D820354FF40067324635
:10026000294620462760FFF77BFF40B1012804D0D4
:10027000F61D26F007060836D8E7361DD6E72846CD
:10028000DAE7206ABDE8F08170B50C460546012A20
:1002900005D02878800600D5EA69002302E0012312
:1002A00005E05B1C934202D2E05C0028F9D1A8690A
:1002B000E618C01AA861286A184428622846AFF3D5
:1002C000008004E0D5E9012114F8010B9047B44205
:1002D000F8D32846AFF3008070BD00002DE9F0414F
:1002E0000646002410687529314616A510D0AFF3D4
:1002F0000080002802DA404213A507E031688A072F
:1003000001D512A502E0490704D511A5012401E099
:10031000AFF3008000210A2206F1240709E0B0FBB8
:10032000F2FCB0FBF2F302FB1C00303078541846AC
:10033000491C0028F3D123462A463046BDE8F04147
:1003400000F031B8000000002D0000002B0000007C
:100350002000000070B5064600F016F80468054657
:1003600030460A22002100F00DFB2C6070BD401EBB
:10037000CAB210F8011F8A4202D00029F9D1002028
:10038000704770477047704700487047440000202E
:1003900010B5FFF7F9FF006810BD10B50446FFF770
:1003A000F3FF046010BD2DE9F0470D4699469246D3
:1003B000044600F124080168880604D5E06921F0AC
:1003C0001001216000E00120A84201DD471B00E090
:1003D0000027A1697A1902EB0900081AA0612078A8
:1003E000C00602D42046AFF30080002608E0D4E91E
:1003F00001211AF806009047206A401C761C2062F2
:100400004E45F4DB2078C0060AD52046AFF30080C5
:1004100006E0D4E9012130209047206A401C206288
:10042000381EA7F10107F4DC07E0D4E9012118F830
:1004300005009047206A401C2062281EA5F1010596
:10044000F3DC2046AFF300802078000602D50220BE
:10045000BDE8F0870120FBE770472DE9FF4F0C4610
:100460001E464FF0FF378BB0D2E90001DDF8608007
:100470000A908A46C1F30A5505B93D46002108464F
:100480004FF00000BAF1000F00F4400005DA00EB75
:1004900080004FF4400101EA50004FEA9059B9F151
:1004A000010F00DDB9460A9850EA4A000ED044F622
:1004B0001050A5F2FF3545432F14B8F1000F1ED0A0
:1004C0007542291E1EDDC9F100021CE0B8F1010FC2
:1004D0004FF0000001D0302103E0F24305E0215449
:1004E000401CB042FBDB30460022002121540B9916
:1004F000C1F80880C1E900200FB0BDE8F08FBD1B36
:100500006D1CDEE74A4600DA694206A800F080FB6F
:1005100006AB93E8070003AB83E8070050460A994F
:1005200001F026F98DE80700A0F500501F38009073
:100530000398002D0ADD42F21F014A4608440023B9
:1005400003A90390684601F0D1FB09E0A0F5005033
:100550004A461F38002303A90390684601F0F0FBC8
:100560008DE807000004000C03D04FF0FF30410875
:1005700000E01046B8F1000F03D0002200921546AB
:100580001EE0751E05D400F045FA303262556D1E2E
:10059000F9D5B3460122084302D000227F1C04E0B3
:1005A0002078302801D100227F1E002A099784D0AC
:1005B0001DE0112D07DA00F02DFA303262556D1C66
:1005C00050EA0102F5D1084302D00098C8B10EE00C
:1005D0000021681E05E0235C625C63542254401EC7
:1005E000491C8142F7DBAB46A81B401E0990002046
:1005F00004F80B000B98099AC0F80880C0E9002B9A
:100600007AE711264FF0000857E72DE9F04F8846AA
:100610000446D21D22F0070191B0D1E90001CDE9D5
:100620000A0102F01AFD02460B98C00F01D02D20DE
:1006300007E02068810701D52B2002E0202101EA94
:10064000C000032A099001D0072A05DB0346414672
:10065000204600F02DFA0BE12078800601D5E069F4
:1006600000E00620B8F1650F814606D0B8F1660FAC
:1006700018D0B8F1670F70D131E00020B9F1110F37
:10068000009001DB112301E009F101030AAA01A98D
:100690000CA8FFF7E2FEDDE90C70002609F1010568
:1006A000834647E001204B4600904FF000470AAADE
:1006B00001A90CA8FFF7D1FEDDE90DB00C995D464C
:1006C000002610B909F101000D18B9EB050003D49B
:1006D000C0F1FF3609F10105A5EB09002BE0B9F1E6
:1006E000010F01DA4FF001090020B9F1110F00905C
:1006F000484601DD112300E003460AAA01A90CA81F
:10070000FFF7ABFEDDE90C704D46002683462078EE
:1007100000070AD4AB4500DA5D4601A8012D04DDCF
:10072000411911F8011C302907D04F4502DA17F1A1
:10073000040F04DA012082460FE06D1EEEE7002F61
:1007400002DCED1B3E4403E0781CA84200DD7D1C6A
:10075000B81B00F1010A4FF000472078000703D4CE
:10076000AA4501DB4FF0FF3A0021B7F1004F0DF130
:1007700043088DF8431024D002202B23002F01DAE8
:100780007F422D230A21021EA0F1010000DC5FB18F
:1007900097FBF1FC97FBF1F201FB1C7C17460CF177
:1007A000300C08F801CDEEE7A8F1010003702188B4
:1007B000090501D5452100E06521A0F1010800F8F7
:1007C000011C09980FA9A1EB0807FF1D00B101202A
:1007D000411901EBEA70A1693844081A401EA06172
:1007E0002078C00602D42046AFF30080099828B1D3
:1007F000D4E901219047206A401C20622078C0067D
:1008000022D52046AFF300801EE0002E04DBB34566
:1008100002DD01A8805D00E03020D4E9012190478D
:10082000206A401C2062761CAAF101005FEA000ADF
:100830000AD100F0EBF8C0680168405CD4E90121FE
:100840009047206A401C2062281EA5F10105DCDCCF
:1008500007E0D4E9012118F8010B9047206A401CF9
:100860002062381EA7F10107F3DC2046AFF30080B9
:10087000032011B041E6000001694A1C02610878BA
:10088000704700B58FB0CDE90131002105910549D0
:100890007944CDE9031011466846FFF7C1FC0FB05B
:1008A00000BD0000E5FFFFFF0A6802F8010B0A60C7
:1008B000704710B5436913B1AFF3008001E0FFF753
:1008C000E3FC012010BD127800F124010A7000221F
:1008D0004A700122EDE711684FF0FF32E9E70000AE
:1008E0000FB4002300B589B00CA900910B99CB601F
:1008F000214B7B440693214B7B44079304236FF0E9
:100900000042CDE901321E4A7A446B460892024603
:10091000002006F003FB09B05DF814FB70B5064635
:100920004FF0FF3015460C46324686B00091CDE9B7
:10093000010169460020049004A8FFF7D1FF024698
:100940000498211825B108B1084600E02046286027
:10095000049800280DD0002A02DD0098884208D0B3
:100960003246081B69460094CDE9010404A8FFF74C
:10097000B7FF06B070BD00003B020000530200004C
:10098000930100002DE9F04791460F46804604464A
:10099000002614F8015B2DB100F030F80068405DCE
:1009A000C007F6D12B2D02D02D2D18D0641E4A463B
:1009B0003946204600F0DCF827B13968A14201D160
:1009C000C7F800804FF0020471050BD540420028A3
:1009D00003DDFFF7D9FC0460A007BDE8F08746F40B
:1009E0008066E4E70028F8DAFFF7CEFC04606FF0D9
:1009F0000040F2E7004870474400002010B500F0C6
:100A000005F8001D10BD00BF1D52000000487047D2
:100A10006400002030B5B0F10A024FEA900E71F187
:100A200000034EEA817EB0EB0E0061EB91014FEACC
:100A3000101E4EEA017E10EB0E0041EB11114FEA41
:100A4000102E4EEA016E10EB0E0041EB11214FEA21
:100A5000104E4EEA014E10EB0E0041EB11414018D2
:100A600041F100014FEAD00040EA41704FEAD10164
:100A700010EB80054FEA810444EA907444EB0104D2
:100A80006D1944EB0404521BA3414FF0000348BF0F
:100A90000A3200D530BD401C41F1000130BD10B517
:100AA0000446FFF7ABFF0068005D00F0010010BDD9
:100AB0002DE9F0411F46044603260168072A01F488
:100AC000006004DB08B116A505E016A503E008B137
:100AD00015A500E015A521F010002060A069C01E3A
:100AE000A0610FB1401EA0612046AFF300804FB15E
:100AF000D4E9012138469047206A401C2062C01C7E
:100B0000206206E0206AFAE7D4E9012115F8010B1A
:100B10009047761EF8D22046AFF30080BDE8F08102
:100B20004E414E006E616E00494E4600696E660091
:100B3000426842B1016811F8013B23B1521EC0E97D
:100B40000012184670470121C160881E7047426834
:100B50005AB1C368016843B983688B4205D0491E06
:100B6000521CC0E90012002070474FF0FF30704760
:100B70002DE9F05F824615468B4600270AF10104F5
:100B8000B9460078302801D09DB113E014F8010B6C
:100B90000127782803D0582801D045B10AE00DB1CB
:100BA000102D07D1002714F8010B102502E00825AD
:100BB00000E00A250026B0460EE005FB080005FB14
:100BC00006F101271FFA80F801EB1046B6F5803FC9
:100BD00000D3B94614F8010B294600F0B0F80028FC
:100BE000EBDABBF1000F05D00FB1641E00E05446F4
:100BF000CBF80040B9F1000F06D0FFF7C5FB02218A
:100C00000160C81EBDE8F09F48EA0640FAE7000010
:100C10002DE9F047814616468AB0354878440DC81C
:100C20008DE80D0032487844801C03AC0DC884E880
:100C30000D0041F69B300844372190FBF1F290FB08
:100C4000F1F5A5F1800501FB12041B3C02D56442BD
:100C5000012000E00020DFF898A080460027FA4439
:100C6000AAF1BE0A0EE0E0070AD03246684607EB5A
:100C7000470101230AEB810101F062F88DE80700CA
:100C800064107F1C002CEED1194F7F44AE3F19E059
:100C9000E80715D007EB04100DF1180A90E80E00D4
:100CA0008AE80E00C068F04201D1981908903246D7
:100CB000012306A903A801F043F803AB83E807006A
:100CC0006D10641C002DE3D14FF0010332466946DC
:100CD000B8F1000F03A802D001F008F801E001F01C
:100CE0002FF8C9E90001C9F808200AB0BDE8F0876B
:100CF000C46700007546FFF77DFEAE4605006946F5
:100D0000534620F00700854618B020B5FFF762FA79
:100D1000BDE820404FF000064FF000074FF00008FC
:100D20004FF0000B21F00701AC46ACE8C009ACE87D
:100D3000C009ACE8C009ACE8C0098D4670473A2844
:100D400000D2303820F02002412A01D3A2F137002E
:100D5000884201D34FF0FF30704700002DE9FF4F6C
:100D600006468BB00878FF2806D0491C2D2805D0F0
:100D700000244FF0000908E000200CE00124F8E70F
:100D800009EB8903491C00EB43090878FF28F7D1D8
:100D900014B1C9F100008146107800252C46AA46FE
:100DA00029462D2801D02B2804D1521C2D2813D0E0
:100DB000002082468B461078FF280FD04FF0000CA1
:100DC0000A21521CA5FB017804FB018105FB0C11D3
:100DD000C5194BEB0104EEE70120EAE700210846C4
:100DE0004FF00000BAF1000F02D000EB8000400885
:100DF000C0F38157012F01DD4FF0FF370E9955EAFF
:100E0000040009EB01080BD04FF0020918F5FA7F36
:100E100016DA4FEACA70002F706008DD012007E083
:100E20004FEACA70C6E900B00FB0BDE8F08F0020ED
:100E30003060FFF7A9FAC0F800901821084616E0C4
:100E4000B8F5FA7F18DD002F02DAF748784401E0A0
:100E5000F6487844D0E90010C6E9001040EACA70AC
:100E60007060FFF791FAC0F80090142108460FB0A7
:100E7000BDE8F04F05F0EDBF002108464FF000003F
:100E8000B8F10001099002DAC7F1000200E03A4629
:100E900001DAC8F1000106A8FFF7BAFE06AB93E835
:100EA000070003AB83E8070044F23E005BEA04015D
:100EB0000090584604D144F21E012C465D46009134
:100EC000210C0904014306D10099240444EA154485
:100ED0002D041039009104F07F41014306D100999F
:100EE000240244EA15642D020839009104F070418F
:100EF000014306D10099240144EA15742D01091F0C
:100F0000009104F04041014306D10099A40044EA55
:100F10009574AD00891E009104F00041084304D18E
:100F200000986D196441401E00904FF001033A464D
:100F30006846B8F1000FCDE9014503A902DD00F0D4
:100F400014FF01E000F0E7FEBAF1000F04460D4681
:100F500001D084F00044002108464FF000000999B8
:100F600040F2FF77484010F00C0F07D124F000400A
:100F7000284303D0C4F30A50B84212D1FFF704FA51
:100F8000C0F80090C4F30A50B8420AD1A848784487
:100F9000D0E90010C6E9001004F000410843706079
:100FA00042E7C6E900543FE72DE9FF4F1F464FF0E7
:100FB000000A4FF0FF38454691B0D7E90146CDF819
:100FC0003CA0FFF723FDC0680168405C1090B96940
:100FD00012986D1C8847396A814688470028F6D1E7
:100FE000B9F1FF3F0AD0002E24F4D06411DDB9F12D
:100FF0002B0F08D0B9F12D0F0BD102E0404615B0F0
:1010000013E744F48064B96912986D1C8847761E12
:101010008146600504A901D52D2000E02B20002E7B
:1010200001F1010B0DF130088DF810003FDDB9F131
:10103000690F08D0B9F1490F05D0B9F16E0F02D090
:10104000B9F14E0F1CD13B4601A8009580E8500233
:10105000DDE912126FF0020005F064FFC11CCED171
:101060000EE0B96912986D1C884781461398761E68
:1010700044F4007405600F98401C002E0F9016DD9C
:10108000B9F1300FEDD0B9F1780F02D0B9F1580FA6
:101090000DD10F9801280AD13B46CDE90054DDE976
:1010A0001212001F029605F03BFFC11CA7D1109938
:1010B00089453ED144F0800406E01399681CAAF1EA
:1010C000010A44F400740860B9696D1C1298761E18
:1010D000884730288146F0D02BE01099894505D10A
:1010E000200603D4761E44F0800418E0484602F03F
:1010F00072FE08B3761E0DF123018B4544F4007493
:1011000008D2A9F130000BF8010B200607D5AAF18F
:10111000010003E0200602D40AF101008246A00586
:1011200002D51399681C0860B96912986D1C88472C
:101130008146002ED1DC53E0002E51DDB9F1650F60
:1011400002D0B9F1450F4BD1A00549D5B9696D1C45
:101150001298761E24F440748847002E81460CDDD8
:101160002B2804D0B9F12D0F07D144F48074B9694C
:1011700012986D1C8847761E8146E00501D52D2109
:1011800000E02B2108F8011BCDF8008021E0761E3D
:101190000DF13901884544F400740CD2A9F13000F6
:1011A00010F0FF0088F8000002D10099884509D9A5
:1011B00008F1010806E0E00501D51E4801E042F211
:1011C0000F708246B96912986D1C88478146139842
:1011D0000560002E04DD484602F0FDFD0028D6D152
:1011E000F96912988847FF2053468BF8000088F869
:1011F000000000200A900B9004AA0CA90AA8FFF78F
:10120000ADFDA00502D46FF00100F8E614F0240F44
:1012100012D0E0071CD13868DDE90A12031D3B60DB
:101220000068C0E9001213E0D4650000C665000044
:101230008A640000F1D8FFFF0AA9684602F05AFD4F
:10124000E00705D13868009A011D39600068026026
:101250002846D4E610B50446AFF300802046BDE82A
:101260001040FEF7A3BF00004FF0013C50F8042BE4
:1012700051F8043B9A4221D1A2EB0C03934313EAA9
:10128000CC1317D150F8042B51F8043B9A4215D1D6
:10129000A2EB0C03934313EACC130BD150F8042BAD
:1012A00051F8043B9A4209D1A2EB0C03934313EA91
:1012B000CC13DBD04FF00000704700BFD01A01BA4A
:1012C000B1FA81F101F0180122FA01F0CB40C1F12D
:1012D0002001DBB2C0B2C01A2CFA01F3D11A91433B
:1012E00011EAC311E6D170472DE9FF4F1F464FF0B9
:1012F0003C0987B04FF00042DDE9141001F101080C
:10130000DDF858A002EA4050039000200590834683
:10131000054604460490B969461E08988847AAF114
:10132000010A0290BAF1000F3BDD02982E2815D079
:101330001021FFF704FD00282EDB4FF0010B05996B
:10134000014317D0B9F1000F0BDB4A46C11700F07B
:10135000FBF905430C43A9F1040905E001200490C1
:101360000BE008B145F0010501200590049820B973
:10137000361D02E0049800B1361FB969089808F1DB
:1013800001088847BBF1000FAAF1010A0290C9D0F9
:101390000999C1F80080C5E70298702808D0502844
:1013A00006D0F96908988847BBF1000F14D04FE0C8
:1013B000002002900120BBF1000F049009D0B96910
:1013C000089808F101088847AAF10109B9F1000F4E
:1013D00007DCF969089888476FF001000BB0BDE899
:1013E000F08F2B2804D02D280CD14FF0FF30049023
:1013F000B969089808F101088847A9F10109B9F10C
:10140000000FE6DD411CE4D00A21FFF798FC00281C
:10141000DFDB029908F1010801EB810100EB4100DB
:101420000290B969089888470A21FFF788FC099A51
:10143000A9F10109B9F1000FC2F8008001DD00280F
:10144000E7DAF969089888470499029800FB016671
:1014500055EA040004D004F04041090002D006E03F
:10146000039898E0A40044EA9574AD00B61E04F019
:101470000041080002D16D196441761E159810F0E4
:10148000240F03D04FF00B095C4803E04FF028090C
:101490006FF07D008246564507DAAAEB06018944C3
:1014A000B9F1410F01DD4FF0410901200021A9F1FF
:1014B000010200F049F9024628400B46214008434A
:1014C00001D0012100E00021501E029143F1FF31C3
:1014D00028402140084301D0012000E0002002996B
:1014E000834651EA0B014FD0002108464FF000001F
:1014F000039900F4400039B100EB80004FF4400143
:1015000000EBD07001EA60008015012802DD4FF089
:10151000FF3000E013D0401C36D0029860B3BBF11E
:10152000000F0CD14A460120002100F00DF928409F
:101530002140084301D0012000E00020E0B101205B
:101540004A46002100F000F9034640190A4661416D
:101550002D1A8C4111D3B9F1400F09DD159810F007
:10156000240F02D0AAF1340603E0AAF1170600E026
:10157000761C00254FF0004406E05B1E42F1FF326E
:1015800020EA030521EA0204CAF10100B04206DAAA
:101590001B49039808430190002000900EE0039A35
:1015A000C4F3D321E80A0A43164940EA44500A43E7
:1015B0003146CDE90002684602F002FC159810F0B1
:1015C000240F0BD01598C00715D13868DDE900123B
:1015D000031D3B600068C0E900120CE002A86946E8
:1015E00002F088FB1598C00705D13868029A011DE2
:1015F0003960006802604046F0E6000002FCFFFF30
:101600000000F07F0000F03F2DE9FF4F92461D469D
:1016100085B04FF00041DDE9124BDDE914727F1E09
:1016200001EA4B50414940F0FF4940EA01080021DE
:1016300022F020004928049102D04E2828D04CE006
:101640003BA0012607C88DE80700A9690698641C1D
:1016500088477F1E014606D41DF8060018B121F008
:10166000200181420BD0E96906988847032E34D0C7
:10167000082E32D06FF0010009B0BDE8F08F761C63
:10168000032E01D0082EE0D1601CCAF80000DCE770
:10169000A9690698641C88477F1E2AD420F0200080
:1016A000412826D1A9690698641C88477F1E20D44A
:1016B00020F020004E281CD1A9690698641C884798
:1016C0007F1E48F4002849F48009CAF8004001D47C
:1016D000282806D0E969069888475FEACB7012D0BF
:1016E00022E0A9690698641C88477F1E01D400285F
:1016F00003DAE96906988847BCE72928F1D1641C18
:10170000CAF80040E9E71BF0240F07D028680499C5
:10171000031D2B600068C0E9001805E02868021D61
:101720002A600068C0F800902046A5E70000F07F1E
:10173000494E46494E4954590000000001491820BD
:10174000ABBEFEE726000200B2F120030AD5C2F1CB
:10175000200301FA02F120FA03F300FA02F041EA51
:101760000301704700FA03F14FF000007047704723
:101770005FEA400C08BF91F0000F4FEA8C234FEA5C
:10178000C12243EA51514FEA1C5018BF00F5F04006
:101790004FEA300018BF41F000415FEA6C5C00F096
:1017A0002980BCF1FF3F08BF40F080407047130C18
:1017B00006BF12044FF0100C4FF0000C130E04BFC4
:1017C00012020CF1080C130F04BF12010CF1040CEF
:1017D000930F04BF92000CF1020CD30F04BF520010
:1017E0000CF1010C11464FF00002A0F11F00A0EB1C
:1017F0000C00704711F0004F08BF704731F00041F6
:101800003FF4D5AF0B0C06BF09044FF0100C4FF09E
:10181000000C0B0E04BF09020CF1080C0B0F04BFE7
:1018200009010CF1040C8B0F04BF89000CF1020CB0
:10183000CB0F04BF49000CF1010CCCF12003A0EB4D
:101840000C0022FA03F302FA0CF241EA030100F160
:101850000100704720F07F4C80EA030023F07F47AF
:10186000ACEB070303F57C5300F0004003F1FF03EA
:101870002DE980494FEA154B09B44FEA144325EA94
:101880000B4E24EA03480FF2042606EB13274908FF
:101890003E785FEA320203FB0667C7F5000707FBE5
:1018A00006F64FEA54374FEAD64606F1020607FB22
:1018B000066CCCF1005C4FEA1C472CEA074C07FB96
:1018C00006F40CFB06F504EB15464FEA961634BFFA
:1018D00000204FF000404FEAD13706FB07FC4FEAEB
:1018E0001C4C0CFB0BF7D21B03FB0CF761EB070145
:1018F0000CFB0EF7B0EB074072EB17420CFB08F73E
:1019000034BFA2EB0742B2EB074261EB17414FEA4B
:101910000C444FEA910706FB07FC4FEA1C4C0CFBFA
:101920000BF7B0EBC74072EB573203FB0CF734BF39
:10193000A2EBC742B2EBC74261EB57310CFB0EF78B
:10194000B0EBC70072EB57720CFB08F734BFA2EB89
:10195000C702B2EBC70261EB5771039F4FEA816187
:1019600041EA921104EBCC044FEAD1374FEA82628C
:1019700006FB07FC42EA90124FEA80604FEA1C4CDB
:101980000CFB0BF7D21B03FB0CF761EB07010CFB05
:101990000EF7B0EB074072EB17420CFB08F734BFB1
:1019A000A2EB0742B2EB074261EB17414FEA8C55BD
:1019B0004FEA910704EB9C2406FB07FC4FEA1C4C02
:1019C0000CFB0BF7B0EBC74072EB573203FB0CF785
:1019D00034BFA2EBC742B2EBC74261EB57310CFBFD
:1019E0000EF7B0EBC70072EB57720CFB08F734BF71
:1019F000A2EBC702B2EBC70261EB577115EB4C25A6
:101A00004FEA816141EA92114FEA82624FEAD1378F
:101A100042EA901206FB07FC44F100044FEA8060A2
:101A20004FEA1C4C0CFB0BF7D21B03FB0CF761EBD2
:101A300007010CFB0EF7B0EB074072EB17420CFBF3
:101A400008F734BFA2EB0742B2EB074261EB174144
:101A500015EB1C154FEA813141EA92414FEA82327F
:101A600042EA90424FEA80304FEA0C7644F100049B
:101A700048EA03434EEA0B484FF0000EB2EB080C65
:101A800071EB030724BF624639464EEB0E0E4FF052
:101A9000000B0018524149414BEB0B0BB2EB080C09
:101AA00071EB03077BF1000B24BF624639464EEB16
:101AB0000E0E4FF0000B0018524149414BEB0B0B3F
:101AC000B2EB080C71EB03077BF1000B24BF6246FD
:101AD00039464EEB0E0E51EA020718BF46F00106DA
:101AE00016EB0E7655F1000254F1000103D5BDE866
:101AF0008901BDE80088BDE88901BDE80048B61944
:101B0000524141EB0101A3F10103704780807F7EC8
:101B10007D7C7B7A79787776767574737271717063
:101B20006F6E6E6D6C6C6B6A6A6968686766666515
:101B30006464636362616160605F5F5E5E5D5D5CA3
:101B40005C5B5B5A5A595958585757565655555514
:101B50005454535352525251515050504F4F4F4E74
:101B60004E4D4D4D4C4C4C4B4B4B4A4A4A494949C2
:101B70004848484747474746464645454544444404
:101B800044434343434242424241414146EA0646BE
:101B9000A3F570534FEA164646EA42564FEAD22260
:101BA00042EA415210B54FEAD121A3F1010300F0FE
:101BB0002FF820F0004000F1020C00F0004701EB8C
:101BC00000501146BCF5006F40EA070000D210BD7E
:101BD000BAF1000F0AD01CB503B44FF004004FF067
:101BE00004014FF000000FBCBDE810404FF00001B1
:101BF000BBF1010FB9BF04484FF0FF31034800218A
:101C000040EA070010BD00BFFFFFEF7F0000F07F3C
:101C1000002B9C4630D477002BD01CB54FEA3707F9
:101C200003B44FF010004FF01001BAF1000F06D0CE
:101C3000BCF1000FDCBF40F0080040F008014FF09D
:101C400000000FBCBDE810400BF1010BBBF1010F10
:101C500008BF5FEA170722BF12F1010211F101016B
:101C60004FF0004143F1000300F0004043EA000060
:101C70007047F9D35708D0E746EA064613F1400FFC
:101C80004FEA16461FDD13F1200FDFBF16430A4649
:101C9000002120335B42BED0C3F1200746EA06464E
:101CA00002FA07F74FEA164646EA0706C3F120078D
:101CB00022FA03F201FA07F721FA03F14FF00003C9
:101CC00042EA0702A7E746EA020646EA06464FEA64
:101CD000164646EA0106BCBF46EA0646360C4FF0F9
:101CE00000034FF000024FF0000194E72DE9804C13
:101CF0009A46934670B491E8380007C831EA400C20
:101D000048BF34EA430C03D5FFF7A4FDFFF780FF7B
:101D1000F0BCBDE8008C2DE9804C9A46934670B427
:101D200091E8380007C831EA400C48BF34EA430C58
:101D300003D5FFF78FFDFFF729FFF0BCBDE8008C4E
:101D40002DE9804C9A46934670B491E8380007C854
:101D500010F0804F08BF13F0804F03D100F01AF845
:101D6000FFF756FFF0BCBDE8008C2DE9804C9A4689
:101D7000934670B491E8380007C810F0804F08BF50
:101D800013F0804F03D100F005F8FFF7FFFEF0BC21
:101D9000BDE8008C20F07F4780EA030023F07F4CF1
:101DA00007EB0C03A3F57C5300F00040A3F1FE0306
:101DB00092F0000F00F0B38095F0000F00F07780F4
:101DC0002DE901494FEA11404FEA144621EA004843
:101DD00000FB06FC24EA064708FB06F607FB08F8AA
:101DE00000FB07F718EB06484CEB164C4FEA124B7A
:101DF00018EB07484FEA15464CEB174022EA0B4E0A
:101E00000BFB06FC25EA06470EFB06F607FB0EFE5B
:101E10000BFB07F71EEB064E4CEB164C4FF0000683
:101E20001EEB074E4CEB174B18EB0B0840F1000074
:101E300018EB0E0B58EB000840F100008F1A4FF022
:101E400000013CBFC943661B14BFB5EB040C002165
:101E50003CBFC943F61B4FEA17444EEA8E0E27EAF1
:101E600004454FEA1C4704FB07622CEA074C05FBBC
:101E700007F70CFB05F604FB0CFC16EB074642EBE0
:101E8000174216EB0C4642EB1C421BEB060658EBC6
:101E90000202414146EA9E0601D5BDE80189B61914
:101EA000524141EB0101A3F10103BDE801894FEA71
:101EB00014454FEA114724EA054621EA074C05FB81
:101EC00007F406FB07F70CFB06F105FB0CFC11EB16
:101ED000074144EB17444FEA124711EB0C4144EB26
:101EE0001C4422EA074C05FB07F206FB07F70CFB34
:101EF00006F605FB0CFC16EB074642EB174216EB09
:101F00000C4642EB1C456A1854F1000148BF70476B
:101F1000B619524141EB0101A3F10103704795F05D
:101F2000000F37D04FEA11424FEA144721EA024628
:101F300024EA074C02FB07F106FB07F70CFB06F44B
:101F400002FB0CFC14EB074441EB17414FEA154729
:101F500014EB0C4441EB1C4125EA074C02FB07F54E
:101F600006FB07F70CFB06F602FB0CFC16EB07461C
:101F700045EB174516EB0C4645EB1C42121951F187
:101F8000000148BF7047B619524141EB0101A3F16E
:101F9000010370474FEA14454FEA114724EA05460A
:101FA00021EA074C05FB07F106FB07F70CFB06F2DD
:101FB0004FF0000605FB0CFC12EB074241EB17410A
:101FC00012EB0C4251EB1C4148BF7047921841EB99
:101FD0000101A3F101037047FEE7704740F235525B
:101FE00006E01146491E0904090CFBD1401E80B2CF
:101FF0000028F6D17047F0B5CC78002204F00F032A
:10200000E40601D58C7823430C784FF00F0C14F0C4
:10201000FF0F4FF0010E1BD005680E880EFA02F478
:102020002640A64210D196000CFA06F725EA0707CB
:1020300003FA06F5CE783D43282E02D0482E02D072
:1020400002E0446100E00461521C082AE5D3056007
:102050000A88FF2A1CD94468002202F108060EFAF9
:1020600006F50E882E40AE420ED196000CFA06F709
:10207000BC4303FA06F7CE783C43282E00D14561D5
:10208000CE78482E00D10561521C082AE5D3446061
:10209000F0BD000010B5FF4900200124C1F88041C7
:1020A000D1F82021012A0BD0D1F82421012A07D010
:1020B000D1F82821012A03D0D1F82C21012A37D1C7
:1020C000D1F82021012A0BD0D1F82421012A07D0F0
:1020D000D1F82821012A03D0D1F82C21012A17D1C7
:1020E000D1F82021012A0CD0D1F82421012A0AD0CC
:1020F000D1F82821012A08D0D1F82C21012A06D0B4
:1021000006E0412004E0452002E0492000E04D20A7
:10211000D1F82021012AFBD0D1F82421012AF7D0BF
:10212000D1F82821012AF3D0D1F82C21012AEFD0AF
:102130000023C1F88031C1F88441D1F82021012A5F
:102140000BD0D1F82421012A07D0D1F82821012A67
:1021500003D0D1F82C21012A37D1D1F82021012A2E
:102160000BD0D1F82421012A07D0D1F82821012A47
:1021700003D0D1F82C21012A17D1D1F82021012A2E
:102180000CD0D1F82421012A0AD0D1F82821012A23
:1021900008D0D1F82C21012A06D006E0422004E024
:1021A0005E2002E04A2000E04E20D1F82021012AE2
:1021B000FBD0D1F82421012AF7D0D1F82821012A17
:1021C000F3D0D1F82C21012AEFD0C1F88431C1F825
:1021D0008841D1F82021012A0BD0D1F82421012AED
:1021E00007D0D1F82821012A03D0D1F82C21012AC7
:1021F00037D1D1F82021012A0BD0D1F82421012A8E
:1022000007D0D1F82821012A03D0D1F82C21012AA6
:1022100017D1D1F82021012A0CD0D1F82421012A8C
:102220000AD0D1F82821012A08D0D1F82C21012A7E
:1022300006D006E0432004E0472002E04B2000E007
:102240005020D1F82021012AFBD0D1F82421012AE5
:10225000F7D0D1F82821012AF3D0D1F82C21012A76
:10226000EFD0C1F88831C1F88C41D1F82021012A82
:102270000BD0D1F82421012A07D0D1F82821012A36
:1022800003D0D1F82C21012A37D1D1F82021012AFD
:102290000BD0D1F82421012A07D0D1F82821012A16
:1022A00003D0D1F82C21012A17D1D1F82021012AFD
:1022B0000CD0D1F82421012A0AD0D1F82821012AF2
:1022C00008D0D1F82C21012A06D006E0442004E0F1
:1022D000482002E04C2000E05120D1F82021012AC2
:1022E000FBD0D1F82421012AF7D0D1F82821012AE6
:1022F000F3D0D1F82C21012AEFD0C1F88C31C1F8EC
:102300009041D1F82021012A0BD0D1F82421012AB3
:1023100007D0D1F82821012A03D0D1F82C21012A95
:1023200037D1D1F82021012A0BD0D1F82421012A5C
:1023300007D0D1F82821012A03D0D1F82C21012A75
:1023400017D1D1F82021012A0CD0D1F82421012A5B
:102350000AD0D1F82821012A08D0D1F82C21012A4D
:1023600006D006E0372004E0382002E0392000E003
:102370002F20D1F82021012AFBD0D1F82421012AD5
:10238000F7D0D1F82821012AF3D0D1F82C21012A45
:10239000EFD0C1F89031C1F89441D1F82021012A41
:1023A0000BD0D1F82421012A07D0D1F82821012A05
:1023B00003D0D1F82C21012A37D1D1F82021012ACC
:1023C0000BD0D1F82421012A07D0D1F82821012AE5
:1023D00003D0D1F82C21012A17D1D1F82021012ACC
:1023E0000CD0D1F82421012A0AD0D1F82821012AC1
:1023F00008D0D1F82C21012A06D006E0342004E0D0
:10240000352002E0362000E02A20D1F82021012AE0
:10241000FBD0D1F82421012AF7D0D1F82821012AB4
:10242000F3D0D1F82C21012AEFD0C1F89431C1F8B2
:102430009841D1F82021012A0BD0D1F82421012A7A
:1024400007D0D1F82821012A03D0D1F82C21012A64
:1024500039D1D1F82021012A0BD0D1F82421012A29
:1024600007D0D1F82821012A03D0D1F82C21012A44
:1024700019D1D1F82021012A0ED0D1F82421012A26
:102480000CD0D1F82821012A0AD0D1F82C21012A18
:1024900008D008E000802142312004E0322002E030
:1024A000332000E02D20D1F82021012AFBD0D1F8E3
:1024B0002421012AF7D0D1F82821012AF3D0D1F81C
:1024C0002C21012AEFD0C1F89831C1F89C41D1F8F4
:1024D0002021012A0BD0D1F82421012A07D0D1F8DC
:1024E0002821012A03D0D1F82C21012A37D1D1F893
:1024F0002021012A0BD0D1F82421012A07D0D1F8BC
:102500002821012A03D0D1F82C21012A17D1D1F892
:102510002021012A0CD0D1F82421012A0AD0D1F897
:102520002821012A08D0D1F82C21012A06D006E062
:102530002E2004E0302002E03D2000E02B20D1F8E6
:102540002021012AFBD0D1F82421012AF7D0D1F88B
:102550002821012AF3D0D1F82C21012AEFD0C1F88B
:102560009C3110BD2DE9F0470024FFF793FDFE4D8F
:10257000FE4F02462870002630384FF0010A07F15E
:102580000B0807F1160909284ED92E2A4CD02B2A00
:102590007ED02D2A7CD02A2A7AD02F2A78D05E2A83
:1025A00076D0412A75D0422A73D0432A71D0442A6A
:1025B0006FD0452A6DD0472A6BD0482A69D0492A66
:1025C00067D04A2A65D04B2A63D04C2A61D04E2A64
:1025D0005FD0502A7FD0512A7DD03D2A7AD04D2A13
:1025E00020D100F0B5FBEE70AE60EE606E70AE70A4
:1025F0002E712E616E71AE716E61AE61EE613E55EF
:10260000641CE4B20B2CFAD3002041460E54401C4B
:10261000C0B20B28FAD3002049460E54401CC0B269
:102620000C28FAD3BDE8F0872879012825D16879EC
:10263000012826D1687820BB00F08AFBEE70AE60DE
:10264000EE606E70AE702E712E616E71AE716E6145
:10265000AE61EE613E55641CE4B20B2CFAD300204F
:1026600041460E54401CC0B20B28FAD30020494604
:102670000E54401CC0B20C28FAD32879A0B101280E
:10268000D0D1A8782A7808F80020401CA87001E072
:1026900015E020E0E878401CC1B2E970012000F0AC
:1026A0005AFB85F805A0BDE7E8782A783A54401C23
:1026B000C1B2E970BDE8F047012000F04CBBE878FA
:1026C000401CC1B2E9706A70012000F044FB85F83B
:1026D00004A0A7E716E2E8780028A3D0413A112A1F
:1026E000A0D2DFE802F00A2540668109A7C2EFED1B
:1026F000ECEB09EA09E9E80094E72E219B48FDF795
:1027000036FE0028994807D001F0F2FE03F0A0FA47
:10271000686104F0C5F804E0FDF71CFEA86003F052
:1027200048FD02F08FF903F093FA91A2E861FEE010
:102730002E218E48FDF71BFE00288C4807D001F0A3
:10274000D7FE03F085FA686104F0AAF804E0FDF70B
:1027500001FEA86003F02DFD03F0E4F903F078FA20
:1027600084A2E86119E02E218048FDF700FE0028D0
:102770007E4807D001F0BCFE03F06AFA686104F0FD
:102780008FF804E0FDF7E6FDA86003F012FD01F00C
:1027900029FB03F05DFA79A2E8610121084600F007
:1027A000EDFA724A0621012000F0E8FAE878801D6F
:1027B000C8E02E216D48FDF7DAFD00286B4807D0F0
:1027C00001F096FE03F044FA686104F069F804E051
:1027D000FDF7C0FDA86003F0ECFC03F047F803F040
:1027E00037FA68A2E8615AE02E216048FDF7BFFD84
:1027F00000285E4807D001F07BFE03F029FA6861EB
:1028000004F04EF804E0FDF7A5FDA86003F0D1FC4C
:1028100002F0C6FA03F01CFA0121E8615BA2084647
:1028200000F0ACFA514A0721012000F0A7FAE8783D
:10283000C01D87E02E214D48FDF799FD00284B482B
:1028400007D001F055FE03F003FA686104F028F8A0
:1028500004E0FDF77FFDA86003F0ABFC01F038FD5C
:1028600003F0F6F94BA2E86197E72E213F48FDF708
:102870007EFD00283D4807D001F03AFE03F0E8F95C
:10288000686104F00DF804E0FDF764FDA86003F052
:1028900090FC01F043FE03F0DBF940A2E861012166
:1028A000084600F06BFA314A0521012000F066FA73
:1028B000E878401D46E00AE1EEE0B9E09DE081E005
:1028C0001BE0FFE72E212948FDF751FD002827488E
:1028D00007D001F00DFE03F0BBF9686103F0E0FFE3
:1028E00004E0FDF737FDA86003F063FC03F0C2F8D5
:1028F00003F0AEF92BA2E8614FE72E211B48FDF74C
:1029000036FD0028194807D001F0F2FD03F0A0F9C8
:10291000686103F0C5FF04E0FDF71CFDA86003F04B
:1029200048FC01F0E7FE03F093F920A2E8610121E1
:10293000084600F023FA0D4A0421012000F01EFA97
:10294000E878001DC1B21AA2012000F017FAE86968
:1029500003F0A6FF024605480B4616A11630FDF708
:102960004BFC024A163227E0000000202000002025
:102970006C6E280074616E682800000061636F73DC
:102980002800000073696E28000000006C6F67313A
:10299000302800006174616E28000000636F7328A6
:1029A000000000005371727428000000655E28006A
:1029B000290000003D256700BDE8F0470121022005
:1029C00000F0DCB92E21B748FDF7D1FC0028B5484E
:1029D00007D001F08DFD03F03BF9686103F060FF63
:1029E00004E0FDF7B7FCA86003F0E3FB02F08EFF04
:1029F00003F02EF9ACA2E861CFE62E21A948FDF73D
:102A0000B6FC0028A74807D001F072FD03F020F9BA
:102A1000686103F045FF04E0FDF79CFCA86003F04B
:102A2000C8FB03F04DF803F013F9A1A2E86136E703
:102A30004FF07E50E8612E219A48FDF798FC00285F
:102A4000984816D001F054FD03F002F9686104F0D3
:102A500077F806460124A86008E0204604F0A4F8B0
:102A6000E96904F0B5F8641CE4B2E861B442F4DD4D
:102A700010E0FDF76FFC06460124A86008E0204640
:102A800004F092F8E96904F0A3F8641CE4B2E86188
:102A9000B442F4DD88A280E62E218248FDF767FC6F
:102AA0000028804807D001F023FD03F0D1F86861C9
:102AB00003F0F6FE04E0FDF74DFCA86003F079FB9F
:102AC00001F07AFD03F0C4F87DA2E86165E62E21ED
:102AD0007448FDF74CFC0028724807D001F008FD4F
:102AE00003F0B6F8686103F0DBFE04E0FDF732FCAA
:102AF000A86003F05EFB01F0B3FA03F0A9F872A23C
:102B0000E8614AE6687860B1A879012809D0687957
:102B100001287FF4C8AD2E216248FDF728FC40BB98
:102B200021E000F015F9EE70AE60EE606E70AE70F0
:102B30002E712E616E71AE716E61AE61EE613E55A9
:102B4000641CE4B20B2CFAD3002041460E54401C06
:102B5000C0B20B28FAD3002049460E54401CC0B224
:102B60000C28FAD35EE54F482E210B30FDF7FFFB12
:102B700080B34C4801F0BCFC03F06AF86861494836
:102B80000B3001F0B5FC03F063F8A86169782D29DA
:102B90000FD004DC2A2912D02B2968D104E02F2978
:102BA00012D05E2963D119E00146686903F0A4FEE2
:102BB00003E00146686904F0D7F8E8614DE001469A
:102BC000686904F005F8F8E710F0FF4F03D00146FC
:102BD000686940E00AE03EA23FA128E003F060FE01
:102BE00004460F46686903F05BFE54E02D48FDF78C
:102BF000B1FBA8602B480B30FDF7ACFBE8606978AF
:102C00002D290DD004DC2A290DD02B292FD104E049
:102C10002F2911D05E292AD136E0A9680A1804E0CC
:102C2000A9680A1A01E0AA6842432CA12A611D483A
:102C30001630FDF7E1FA1AE00028CCD0AC6894FB1E
:102C4000F0F100FB1141E1B103F096FF0746204689
:102C500003F092FF394603F0B1FE03F021FE024675
:102C60000B46AFF2B0210F481630FDF7C5FA0D4AFA
:102C700001211632022000F081F86E7085F806A05E
:102C8000D0E494FBF0F2D0E703F093FA04460F4649
:102C9000A86803F08EFA22463B4602F0FBF802F0E9
:102CA000D7FF8AE72000002073696E6828000000C3
:102CB00074616E28000000006661637428000000E3
:102CC000636F7368280000006173696E280000005C
:102CD0004572726F720000003D2573003D2564004F
:102CE000FEE7000038B50121082000F0D3F8FF20EE
:102CF000ADF8000010208DF803000320124C8DF871
:102D0000020069462046FFF776F94FF47061ADF88E
:102D1000001028218DF8031069462046FFF76BF953
:102D20000A480021C0F88011C0F88411C0F8881149
:102D3000C0F88C11C0F89011C0F89411C0F8981127
:102D4000C0F89C1138BD0000000C014000802142F9
:102D5000012000F055B810B5144601280AD0022809
:102D60000BD101F1BF0000F04BF82046BDE8104048
:102D700000F064B801F17F00F5E710BD70B50024E4
:102D80001546012806D0022810D101F1BF0000F03D
:102D900037F810E001F17F0000F032F803E000F0B6
:102DA0004DF8641CE4B2285D0028F8D170BD00F035
:102DB00045F8641CE4B2285D0028F8D170BD00001D
:102DC00008B50121042000F065F843F6FF00ADF8D6
:102DD000000010208DF8030003208DF802006946E2
:102DE0000648FFF708F9382000F00AF80C2000F038
:102DF00007F8062000F004F808BD000000080140B4
:102E000070B50C4C0025C4F8AC51C4F8B051C4F8EE
:102E1000B451094AC1B21160C043111DC0B208606B
:102E20000120C4F8B40104F5D674FFF7D7F8A56003
:102E300070BD0000000021421008014070B50C4C2C
:102E40000121C4F8AC110025C4F8B051C4F8B45144
:102E5000084BC2B21A60C0431A1DC0B21060C4F859
:102E6000B411084604F5D674FFF7B8F8A56070BD34
:102E70000000214210080140FEE770477047000043
:102E8000034A516821F440410143516070470000FA
:102E900000100240044A0029916901D0014300E07A
:102EA0008143916170470000001002400C480168A6
:102EB00041F00101016041680A4A11404160016826
:102EC000094A11400160016821F4802101604168D4
:102ED00021F4FE0141604FF41F0181607047000042
:102EE000001002400000FFF8FFFFF6FE034600203E
:102EF0005909094A01290AD002290AD0516A03F066
:102F00001F02012393400B4200D00120704711683B
:102F1000F5E7116AF3E7000000100240024840683C
:102F200000F00C007047000000100240034A516896
:102F300021F0F00101435160704700000010024091
:102F4000014908607047000000004242034A51688E
:102F500021F4E0610143516070470000001002401D
:102F6000034A516821F4605141EAC0005060704743
:102F7000001002400149086670470000000042420C
:102F8000034B5A68084322F47C1210435860704780
:102F900000100240034A516821F0030101435160CF
:102FA0007047000000100240704710B5FFF77EFF29
:102FB0000120FFF7C5FF2120FFF798FF0028FAD076
:102FC0000020FFF7B3FF4FF48060FFF7BFFF002042
:102FD000FFF7C6FF4FF48040FFF752FF4FF4201178
:102FE0000020FFF7CDFF0120FFF7C4FF3920FFF7D6
:102FF0007DFF0028FAD00220FFF7CCFFFFF78EFFFD
:103000000828FBD110BD70470F4810B5016841F08A
:103010000101016041680D4A1140416001680C4A9C
:1030200011400160016821F480210160416821F4B0
:10303000FE0141604FF41F018160FFF7B6FF0549B3
:103040004FF00060086010BD001002400000FFF863
:10305000FFFFF6FE08ED00E0FEE7490050EAC12060
:1030600018BF04204A0D18BF40F0010040F2FF7263
:10307000B2EB515F08BF40F00200012808BF0520F5
:10308000704700002DE9F74F144694B00021C4E9C1
:1030900002111599079121F00045C9498D4206DCBE
:1030A0001599C4E9000117B00020BDE8F08FC549AB
:1030B000DFF814A3A9423CDD0799C44E0029C44F90
:1030C000C44A1599534619DD03F000FB554506D057
:1030D000C14AC24B03F0FAFAC4E900010AE04FF01A
:1030E000D352BE4B03F0F2FA32463B4603F0EEFAFF
:1030F000C4E9000117B00120BDE8F08F02F0DAFD4D
:10310000554506D0B44AB54B02F0D4FDC4E90001E0
:103110000AE04FF0D352B14B02F0CCFD32463B46B1
:1031200002F0C8FDC4E9000117B04FF0FF30BDE860
:10313000F08FAB49A942159978DB21F00041834615
:103140008846A84AA84B03F09BF80022A74B02F040
:10315000B1FD02F0FFFF099003F02BF806460F4681
:103160009C4A534603F08CF843465A4603F0BCF998
:1031700080468A46984A994B3046394603F080F893
:103180002A0D01250B924246534603F0ADF9032D5B
:10319000C4E9000139D00B98C1F30A51401A05EB7C
:1031A00045111139814230DA9148C346784400EB29
:1031B0000510CDF80CA00C90D0E90023304639461C
:1031C00003F05EF802460B460491069058460399B8
:1031D00003F07CFA80468A4602460B46584603991D
:1031E00003F074FA049B069A03F070FA83460C9875
:1031F00003913946D0E90223304603F041F85A469C
:10320000039B03F063FA6D1CBDE707980028A2BF7B
:10321000099817B0BDE8F08F616881F000416160E6
:10322000099817B04042BDE8F08FFFE78446159833
:10323000C1F31301C0F30A50A0F2F5304FEA601851
:1032400000F01F06C6F120001390002006900790A2
:1032500041F4801E05206D4676B1664A08EB0001F8
:103260007A4452F8213002EB8101B3404A68139945
:1032700022FA01F1194305E05F4908EB00027944A5
:1032800051F82210A1FB0E27A1FB0C131A449A42FD
:1032900034BF0123002303EB070A05EB8003D3E9C6
:1032A00001B70F448F4234BF0121002193448B4466
:1032B00011B1934502D903E0934501D2012100E009
:1032C0000021C3E901B7514445F82010011EA0F1C7
:1032D0000100C1DC0298059F00F10050800F1290A0
:1032E0000298DDE90356800002F063FF834628461A
:1032F0000D9102F075FF6FF01D0203F0E1FDCDE9C5
:103300000E01304602F06CFF6FF03D0203F0D8FD75
:1033100080468A46384602F063FF6FF05D0203F094
:10332000CFFD074642465346119102F0C3FCDDE94A
:103330000E2302F0BFFC5A460D9B02F0BBFC002599
:103340000E465A4628460D9B03F0C0F9DDE90E23D0
:1033500003F0BCF94246534603F0B8F93A46119BD4
:1033600003F0C2F8DFF898A0244A534602F088FF21
:1033700007468846234A244B3146284602F080FF00
:103380003A46434602F096FC074688464FF0A8426C
:1033900053463146284602F073FF3A46434602F050
:1033A00089FC159A12F0004F04D0129A81F0004166
:1033B00052421292C4E90001129817B0BDE8F08F92
:1033C000FB21E93F7CD90240FB21F93F7370032EBA
:1033D0008A19A33B000040543163621A61B4D03DA6
:1033E000FB21394183C8C96D305FE43F0000E03FF5
:1033F00068400000E43F0000C63F0000182D445420
:10340000FB21F93D3326A611460B113C2DE9FF4D5A
:1034100021F0004807460C46B8F1795F08DA02F05F
:1034200099FE002801BF0020324904B0BDE8F08DAC
:103430003A4623461046194602F022FF0546024648
:103440002D480E460B460621784400F05DF82A46CA
:10345000334602F015FFDDE9022382468B463846EB
:10346000214602F00DFF04460F4652465B462846B1
:10347000314602F005FF22463B4603F027F9074696
:103480008A464FF0FF322846314603F019FD1B4AA9
:1034900090450ADA3A46534603F018F904B0002280
:1034A000BDE8F04D134B03F01FB8154A4245A8BFC5
:1034B000A8F500154FF00004B8BF124D22462B4668
:1034C00003F004F90646884622462B4600200949A7
:1034D00003F0FCF804460D463A4653463046414652
:1034E00003F0F4F804B022462B46BDE8F04D02F09C
:1034F000FBBF00000000F03F6C3D00003333D33FC2
:103500000000E93F0000D23F2DE9F0414F1E00EBE3
:10351000C7010446D1E9000115461E4637F00602F0
:103520000DD02A46334602F0ABFE7F1E04EBC703E4
:10353000D3E9002302F0BEFB37F00602F1D1022FDF
:1035400025D0042F13D0062F18BFBDE8F0812A46DE
:10355000334602F095FED4E90A2302F0ABFB2A467B
:10356000334602F08DFED4E9082302F0A3FB2A467D
:10357000334602F085FED4E9062302F09BFB2A467F
:10358000334602F07DFED4E9042302F093FB2A4681
:10359000334602F075FED4E9022302F08BFB2A4683
:1035A000334602F06DFED4E90023BDE8F04102F09D
:1035B00081BB00002DE9FF4D054621F0004084B09D
:1035C0000C46B0F1795F0BDA2846FFF746FD042878
:1035D00008BF00F0C1F9284608B02146BDE8F08DCB
:1035E0002A460B46104602F04BFE06460F462A4678
:1035F000234602F045FE804626488A4632463B4630
:1036000005217844FFF780FF83461098029160B34C
:10361000214A224B4046514602F032FECDE90001DC
:103620005A4640465146029B02F02AFE8246884690
:10363000DDE906014FF0FF3203F042FC52464346FB
:1036400003F044F832463B4602F01AFEDDE9062359
:1036500003F03CF8DDE9002303F038F808B02A460F
:103660002346BDE8F04D02F03FBF0B465A463046B8
:10367000394602F005FE084A084B02F01BFB4246A1
:10368000534602F0FDFD08B02A462346BDE8F04D42
:1036900002F010BBDA3C0000495555555555C5BFE1
:1036A0002DE9F04D04468CB0904821F000471646B5
:1036B00098460D460991874206DA2046294602F0CF
:1036C00049FD002800F0AE808948B8421CDC09980A
:1036D0000028BCBF85F0004588F00048854A864B2D
:1036E0002046294602F000FF04460D463246434676
:1036F0008248834902F0EAFF22462B4602F0DAFABA
:10370000002604460D46B04622462B461046194672
:1037100002F0B6FD8B46824602460B4602F0B0FD33
:103720000246089077480B46009106217844FFF73F
:10373000EBFECDE90310744806217844009B089AFB
:10374000FFF7E2FE52465B4602F09AFDCDE9051016
:1037500052465B462046294602F092FD07910090B2
:10376000DDE90310DDE9053202F0A4FA079B009AB7
:1037700002F086FD3246434602F09CFA52465B4612
:1037800002F07EFD3246434602F094FA80460E4631
:103790005E4A5F4B0799009802F072FD424633463D
:1037A00002F088FA82468B4622462B4602F082FAC5
:1037B00080464F480E46B84214985BDC02F0F9FC94
:1037C000074642463346059102F074FACDE90110EE
:1037D000424633461046194602F052FDDDE90132F9
:1037E00002F024FB52465B4602F070FF22462B4655
:1037F00002F07AFE012203F063FB3A46059B02F0D9
:1038000073FE04460D460998022101EAA070C0F13A
:10381000010002F0CEFC0CB022462B46BDE8F04D74
:1038200002F02EBD1498401C384320430BD014984E
:10383000012812D00CB022462B46BDE8F04D0020E6
:10384000344902F0F3BA0CB025F000432246BDE83B
:10385000F04D0020304902F0E9BA20462946FFF732
:10386000FCFB042808BF00F077F820460CB029467E
:10387000BDE8F08D012802BF40460CB0BDE8F08DD8
:1038800000270B463A462046294602F02DFE5246B6
:103890005B4602F029FE04460D46424633460020B0
:1038A0001C4902F0C3FA83463A468846334610461E
:1038B00002F0E6FC0022184B02F0FCF906468A46AC
:1038C00022462B463846414602F0DAFC3246534641
:1038D00002F0F0F95A46434602F0D2FC0CB03A46E8
:1038E0004346BDE8F04D02F0E5B900000000303E6F
:1038F0002894E53F182D4454FB21E93F075C14331D
:1039000026A6813CD83B0000FA3B00006355555584
:103910005555D53F0000F0BF0000F03F0022134690
:103920001046014902F082BA0000F03F012203F084
:10393000C7BA02F0BFB9002213461046114602F082
:1039400075BA40F2013200204FF0E04103F0B8BAFE
:1039500002460B4602F094BC024A0020110703F015
:10396000AFBA000001FDFFFF2DE9F04D0546C94843
:1039700021F0004686B00C4601F00047864235D360
:10398000C54BB34226D8C548864215D3C6F31300AB
:10399000284306D006B028462146BDE8F04DFFF783
:1039A000C5BF27B906B028462146BDE8F08D06B050
:1039B0000020BB49BDE8F08DBA4A2846214602F0F6
:1039C0005DFD07D20220FCF7E8FC06B0BDE8F04D33
:1039D000FFF7B7BF57B1B44AB44B2846214602F0AF
:1039E00069F90022134602F00FFCE0D3B04886428A
:1039F00040F2CC80AF48DFF8C0A2DFF8C0B2B042DE
:103A000017D952465B46284621464FB102F052F97B
:103A100082468B46AA4FDFF8AC824FF0FF362FE08C
:103A200002F054FE82468B46A54FDFF89C820126A9
:103A300026E0A64AA64B2846214602F021FC002F8C
:103A40004FF0000214BFA34BA34B02F033F902F076
:103A500081FB064602F0ADFB0746884652465B46B0
:103A600002F00EFC2A46234602F03EFD82468B46BB
:103A7000934A954B3846414602F002FC0746884679
:103A80003A4643465046594602F020FE05460C464B
:103A900052465B4602F028FD3A46434602F016FEC7
:103AA000CDE902014FF0FF322846214603F008FA23
:103AB00082468B462A46234602F0E2FB0746024630
:103AC000864888460B4605217844FFF71DFD3A4697
:103AD000434602F0D5FB0022814B02F0EBF8524640
:103AE0005B46CDE9000102F0CBFB00227D4B02F0EA
:103AF000FBFC83468A462A46234602F0C1FB00228D
:103B0000794B02F0F1FCCDE90401DDE900015A46F0
:103B1000534602F0DBFDDDE9042302F087F93A4663
:103B2000434602F0ADFBE6B3DDE9022302F0CEFD31
:103B30002A46234602F0A4FBDDE9022302F0C6FD7B
:103B40003A46434602F0C2FDDFF88CA1074688469C
:103B5000B6F1FF3F39D0012E48D016F1020F01DD3A
:103B6000382E6CDD0B463A462846214602F0BCFC56
:103B70005B4C0022234602F0B7FC06B001EB065175
:103B80002346BDE8F04D002202F0A0BD5748B042E8
:103B900098BF002686D928462146FFF75EFA0428FA
:103BA00000E003E008BFFFF7D7FEFBE62A46234606
:103BB00002F066FB3A46434602F088FD06B02A460C
:103BC0002346BDE8F04D02F08FBC0B463A4628462E
:103BD000214602F07BFD4FF0FF3203F071F906B091
:103BE0005346BDE8F04D002202F070BD0022404B6C
:103BF0002846214602F008FB11D2002253462846EF
:103C0000214602F057F83A46434602F06DFC06B0F2
:103C10000022BDE8F04D4FF0404302F031BB3A4680
:103C200043462846214602F051FD012203F048F99F
:103C300006B00022BDE8F04D294B02F03BB84FF032
:103C4000000A142E11DA4FF40010F040C0F17F6B1F
:103C50000B460BF1405B3A462846214602F044FCF5
:103C600052465B4602F040FC0FE040F2FF30801B02
:103C700003055246384602F01DF82A46234602F054
:103C800033FC0022164B02F015F806B001EB06518A
:103C9000BDE8F08D7A684340422E86400000F07FF8
:103CA0000000F0BFEF39FAFE59F3F8C21F6EA5010C
:103CB000422ED63FB2A2F03F0000E0FE422EE63F89
:103CC000763C7935EF39EABDEF39EA3DFE822B6566
:103CD0004715F73F0000E0BF0000E03F1C37000041
:103CE0000000F03F00000840000018400000903C39
:103CF0000000D0BF10B50446D1E9000100F002F881
:103D0000206010BDF8B504460D466A4600F034FE4A
:103D100000987E30009000281EDC002213462046CA
:103D2000294602F0DBF917D0002140F608004FF0D9
:103D3000000006462046294601F08AFF044640F668
:103D4000080006EA00014FF0000034F0004004BF14
:103D50000220FCF722FB29E00098FF2828DB002145
:103D600008464FF0000000F44006002213462046AB
:103D7000294602F083FB8CBF002501250220FCF7B9
:103D80000CFB4FF0FF4446B1002D0CBF4FF4000078
:103D90004FF48000B04218BF084C042108464FF091
:103DA0000000002D04BF84F00040F8BD2046F8BD9F
:103DB00020462946BDE8F84001F04ABFFFFF7F7F5B
:103DC00010B504460A46D4E90003194600F000FE87
:103DD000C4E9000110BD30380A2801D20120704723
:103DE000002070472DE9F04D0546DFF8388221F0BC
:103DF00000408D4F82B00C46404520DBA0EB08010F
:103E000029430BD08949884201DC10D17DB102B031
:103E100028462146BDE8F04DFFF788BD002CC7BFFE
:103E2000002001468248394602B0BDE8F08D0120ED
:103E3000FCF7B3FA02B0BDE8F04DFFF77CBD7D4959
:103E4000884244DA7C498142A1BF79487B4902B06B
:103E5000BDE8F08D2A4623461046194602F010FAB6
:103E60008346024676480E460B4606217844FFF705
:103E70004BFB5A46334602F003FA074671488A461E
:103E80005A46334604217844FFF73EFB5A463346F0
:103E900002F0F6F90022434601F00CFF02460B4601
:103EA0003846514601F0C2FF2A46234602F0E8F99F
:103EB000654A664B02F018FB2A46234602F014FBC3
:103EC00002B05B4ABDE8F04D5C4B02F00DBB002C2C
:103ED0004FF000024BDA464643462846214601F0A1
:103EE000E9FE4FF0FF3202F0EBFF0446024658486D
:103EF0000D460B4606217844FFF706FB22462B466B
:103F000002F0BEF9804653488A4622462B460421D9
:103F10007844FFF7F9FA22462B4602F0B1F9002265
:103F2000334601F0C7FE06468B462046294601F07F
:103F3000A1FD04460D4632465B464046514601F01F
:103F400075FF22462B4602F09BF93F4A3F4B02F099
:103F5000BDFB22462B4601F0ADFE012202F0B0FF70
:103F600002B03B46BDE8F04D314A02F0BDBA2D4BE0
:103F70002846214602F0B8FA4FF0FF3202F0A0FFC7
:103F800005460E4601F076FD00270C4680463A466F
:103F90000B4601F08FFE82468B463A46234610467A
:103FA000194602F06DF92A46334602F09DFA524650
:103FB0005B4601F03BFF824627488B462A46334644
:103FC00006217844FFF7A0FA2A46334602F058F952
:103FD000CDE9000121482A46334604217844FFF701
:103FE00093FA2A46334602F04BF900220D4B01F0BA
:103FF00061FE02460B46DDE9000101F017FF424673
:10400000234602F03DF952465B4601F053FE3A4624
:10401000234601F04FFE02B00122BDE8F04D02F050
:104020004FBF00000000F03FFB2109400000F07F7F
:10403000182D44540000E03F0000603CFB21F93F94
:10404000E8300000FE300000075C143326A6913CE7
:104050005E30000074300000922F0000A82F000096
:104060002DE9F04D8D4F21F0004A86B005460C46F3
:10407000BA452ADBAAEB070028430AD088488245C4
:1040800001DC1AD1CDB106B02846BDE8F04DFFF7EE
:104090004DBC844A844B284602F0F2F807460E468F
:1040A000824A834B2846214602F0EAF806B03A4697
:1040B0003346BDE8F04D01F0FDBD0120FCF76DF980
:1040C00006B0BDE8F04DFFF736BC7A48824542DACB
:1040D000BAF1795F0BDA2846FEF7BFFF042808BF64
:1040E000FFF73AFC284606B02146BDE8F08D2A4687
:1040F0000B46104602F0C4F8834602466E480E4650
:104100000B4606217844FFF7FFF95A46334602F082
:10411000B7F8804669488A465A46334604217844AF
:10412000FFF7F2F95A46334602F0AAF800223B465E
:1041300001F0C0FD02460B464046514601F076FEB6
:104140002A46234602F09CF806B02A462346BDE8DC
:10415000F04D01F0AFBD284624F0004100223D465D
:104160003B4602F0C1F94FF0FF3202F0A9FE0646CD
:10417000024653480F460B4606217844FFF7C4F920
:1041800032463B4602F07CF8CDE900014D4832460C
:104190003B4604217844FFF7B7F932463B4602F02C
:1041A0006FF800222B4601F085FD834602913046D0
:1041B000394601F05FFC804643480D46504517DC08
:1041C000DDE900015A46029B01F030FE42462B46D3
:1041D00002F056F842462B4601F06CFD012202F037
:1041E0006FFE304A304B02F071FA304A304B4CE0EF
:1041F0004FF0000A52460B46404601F05BFDCDE908
:10420000031052462B461046194602F039F8324642
:104210003B4602F069F9DDE9033201F007FE06468C
:104220000F46DDE900015A46029B01F0FFFD83467F
:10423000009101223046394602F042FE194A1A4BDB
:1042400002F052F906460F4601224046294602F086
:1042500037FE5A46009B02F013F832463B4602F006
:1042600035FA06460F4601225046294602F028FE3E
:104270000E4DDFF858802A46434602F035F93246A3
:104280003B4602F031F92A46434602F02DF9002C54
:10429000D8BF81F0004106B0BDE8F08D0000F03FCE
:1042A0000000F07F075C143326A6913C182D44547F
:1042B000FB21F93F0000E03FA02E0000B62E0000D9
:1042C0002A2E0000402E00003333EF3FFB21E93F50
:1042D0002DE9F84F04460D4621F000400091734946
:1042E000814211DC7249884201DC06D12CB12046A2
:1042F0002946BDE8F84FFFF719BB6E48002DCCBF2B
:104300006D496E49BDE8F88F6D49814211DD6D49F7
:104310008142D8BF4FF0FF366DDD20462946FEF7BB
:104320009CFE042808BFFFF717FB20462946BDE87E
:10433000F88F6549654F25F00045814233DD6449BA
:10434000814219DD002632464FF08043204629463F
:1043500001F0B0FC80468A4601222046294602F040
:10436000AFFD00223B4602F0B1F94246534601F050
:104370005DFD04460D463EE001260022BA463B465E
:104380002046294601F096FC80460F4600225346FF
:104390002046294602F09AF942463B4601F046FD86
:1043A00004460D4627E04B4981421BDDDFF828A17A
:1043B0000226002253462046294601F061FF0022D2
:1043C0003B4601F077FC80460F46002253462046CC
:1043D000294602F07BF942463B4601F027FD0446A0
:1043E0000D4608E0032622462B4600203B4901F0FB
:1043F0001DFD04460D4622462B461046194601F087
:104400003FFF8B46824602460B4601F039FF0746C6
:104410000246334888460B4606217844FFF774F875
:1044200052465B4601F02CFF82462E488B463A46A8
:10443000434605217844FFF767F83A46434601F0C2
:104440001FFF02460B46002E504659460CDA01F07B
:1044500031FC22462B4601F013FF01B022462B46C9
:10446000BDE8F04F02F040B801F024FC22462B4694
:1044700001F006FF1C4A7A4402EBC603D3E900238D
:1044800002F024F922462B4602F020F9174A7A441A
:1044900002EBC603D3E9002302F026F8009A002AB3
:1044A000B8BF81F00041BDE8F88F00000000104463
:1044B0000000F07F182D4454FB21F93FFB21F9BF88
:1044C0000000DC3F0000203E0000F33F0000F03F12
:1044D0000000E63F008003400000F83F0000F0BF0E
:1044E000422C0000002C00009E2B0000662B0000D8
:1044F00030B583B00446FBF74BFF05460020CDE9FD
:104500000000024621466846FCF708FA2846FBF7F9
:1045100044FFDDE9000103B030BD000000B5244BCD
:1045200021F0004287B09A42DCBF0022134629DD09
:10453000204B9A4208D140B94FF00100FBF72DFF04
:10454000FFF7F9F907B000BD03DBFFF7EFF907B09C
:1045500000BD02AAFEF796FD10F0030104BF0DF1A5
:10456000080C9CE80F000DD0012001290ED0022973
:1045700014D00DF1080C00909CE80F00FFF71AF81A
:1045800007B000BDFEF742FF07B000BD0DF1080CFB
:1045900000909CE80F00FFF70DF805E00DF1080C06
:1045A0009CE80F00FEF732FF07B081F0004100BD2C
:1045B000FB21E93F0000F07F2DE9F341019820F055
:1045C00000444348844206DBDDE9000102B0BDE857
:1045D000F041FFF7BDB9DDE900013E4A21F000419D
:1045E000944224DAFFF7C0F93B4F05460E460022FD
:1045F0003B4601F05FFBB4F1725FBCBF02B0BDE8A7
:10460000F081012202F05CFC044688462A463346CB
:104610001046194601F034FE2246434601F006FCDE
:1046200002B03B46BDE8F041002201F043BB2B4AFB
:10463000944218DA00F05EF804460D4602460B4636
:104640000020274901F0F2FB0F4606464FF0FF32EB
:104650002046294602F034FC02B032463B46BDE813
:10466000F04101F027BB1F4A944208DA00F042F8FB
:1046700002B04FF0FF32BDE8F04102F021BC1A4A0F
:104680007A441A4B1268520F9C425DF8222003DBD9
:1046900015D1174B9A4212D84FF0FF3202F010FC9E
:1046A00000F028F804460D464FF0FF3202F008FCF7
:1046B00002B022462B46BDE8F04101F0E1BD0220E8
:1046C000FBF76BFE02B0BDE8F041FFF73AB900001E
:1046D0000000F07F432ED63F0000F03F0000364040
:1046E0000000E03F422E86400C2A0000CE33864078
:1046F0007DF8B98F2DE9F04D894BCE0F21F00047A1
:1047000084B005460C469F4230D38648874211D379
:10471000C7F31300284305D004B02846BDE8F04D88
:10472000FFF704B9002E1ABF00200146284604B046
:10473000BDE8F08D7C4A284601F0A0FE07D2022099
:10474000FBF72BFE04B0BDE8F04DFFF7FAB8774A4F
:10475000774B2846214601F057FD07D20220FBF790
:104760001CFE04B0BDE8F04DFFF7F6B87148B84242
:1047700048D27148874215D27048784400EBC60091
:104780002146D0E90023284601F0A0FFCDE9000131
:104790006B48784400EBC600D0E900ABC6F10100DD
:1047A000861B26E0674A684B2846214601F068FDD3
:1047B000664A7A4402EBC603D3E9002301F07AFA91
:1047C00001F0C8FC064601F0F4FC07468846604A42
:1047D000604B01F055FD2A46234601F085FECDE9E8
:1047E00000015D4A5D4B3846414601F049FD824675
:1047F0008B46DDE9000152465B4601F067FF054646
:104800000C4618E05648874214D2564A564B284662
:10481000214601F04FFA554E0022334601F02EFE9C
:1048200008D204B0334628462146BDE8F04D0022A8
:1048300001F040BA00262A4623461046194601F0E8
:104840001FFD804602464A480F460B460521784424
:10485000FEF75AFE42463B4601F012FD2A46234629
:1048600001F042FE07468846E6B302460B460020AA
:104870004FF0804101F02AFFCDE902013A4643465C
:104880002846214601F0FCFCDDE9022301F0CEFAC6
:1048900052465B4601F028FEDDE9002301F016FFD9
:1048A0000022324B01F020FE6FF47F729642A2BFCD
:1048B00001EB065104B0BDE8F08D4FF07A5202EBE7
:1048C000065211442B4A02F0FBFA04460D46FEF74D
:1048D000C4FB042808BFFFF73FF8204604B0294670
:1048E000BDE8F08DFFE700224FF0804301F0EEFEBF
:1048F00082460E463A4643462846214601F0C0FC11
:104900005246334601F092FA2A46234601F0DEFE73
:1049100004B00022BDE8F04D144B01F0E5BD0000ED
:10492000422E86400000F07FEF39FAFE51302DD53F
:10493000104987C0422ED63FB2A2F03F2A2900007C
:1049400022290000FE822B654715F73FE228000070
:104950000000E0FE422EE63F763C7935EF39EA3D35
:104960000000303E9C7500883CE4377E0000F03F3C
:104970007628000018FCFFFF10B5144600222260C4
:10498000114A21F000439342A8BF10BD53EA000230
:1049900008BF10BDB3F5801FA8BF226807DA362212
:1049A00002F08EFA6FF0350221F000432260DFF84A
:1049B0001CC06FF31E510CEB23531A4441F0FF51FE
:1049C00041F00051226010BD0000F07F02FCFFFFAB
:1049D0002DE9F04106460C4640F2FF75174635EAD0
:1049E00014502BD000221346304601F077FB25D01F
:1049F0003A463046214602F063FA06460C4635EA4E
:104A0000145010D000221346304601F067FB15D138
:104A10000220FBF7C2FCFEF79FFF0A46214662F325
:104A20001E01BDE8F0810220FBF7B7FCFEF789FF0D
:104A30000A46214662F31E01BDE8F0813046214658
:104A4000BDE8F0812DE9F04DC84A002490B09142B4
:104A500005DA21F00043934201D805D120B110B00E
:104A6000BDE8F04DFEF762BFB1F5801F1BDA53EAD7
:104A7000000209D0002911DA0120FBF78EFC10B0EA
:104A8000BDE8F04DFEF757BF0220FBF786FCFEF7AE
:104A900045FF10B081F00041BDE8F08D6FF03504A6
:104AA000362202F00DFA04EB2152C1F31308B0498B
:104AB000A2F2FF33414401F4801282F07F6103EBE4
:104AC000225281F04051009241EA08010022A94B94
:104AD00001F0FCFD044608F10200A74EC0F31300EC
:104AE0000D467E44032867D2D6E90023204601F014
:104AF000F5FA1ED10098002802BFD6E9000110B0D7
:104B0000BDE8F08D01F055FB07460C469B4A9C4BD7
:104B100001F0B6FB06460D469A4A9B4B38462146A5
:104B200001F0AEFB10B032462B46BDE8F04D01F06F
:104B3000C1B84FF05532954B2046294601F0A0FBF5
:104B40000022934B01F0D0FC06460F4622462B462E
:104B50001046194601F094FB32463B4601F090FBAB
:104B6000064600980F46F0B101F023FB80468A46C6
:104B7000824A834B01F084FB32463B4601F0B4FC91
:104B800022462B4601F0A2FD05460C467D4A7E4B8F
:104B90004046514601F074FB10B02A462346BDE85A
:104BA000F04D01F093BD0B4610B032462046294629
:104BB000BDE8F04D01F08ABD00224FF08043204651
:104BC00001F078F802460B462046294601F02EF9FE
:104BD00006460F46009801F0ECFACDE90401324692
:104BE0003B461046394601F04BFB0C9069480C9A45
:104BF0004044019009910B46104601F041FB82466A
:104C0000024665488B46C8F151080B4608F5D7287F
:104C100003217844FEF778FC52465B4601F030FBF6
:104C20000A905E480D9152465B4604217844FEF797
:104C30006BFC099B0C9A01F023FB844601980D9BA9
:104C400040EA080860460A9A01F034F88346089161
:104C5000B8F1000F4EDD4FF0FF322046294602F03A
:104C60002FF922462B4601F00BFB804600988A461E
:104C700060B3DDE90401414A414B01F001FB0991B8
:104C800000905A4640465146089B01F013F83246C0
:104C90003B4601F0F5FA099B009A01F00BF84246F9
:104CA000534601F021FC22462B4601F00FFD04463D
:104CB0000D46DDE90401334A334B01F0E1FA10B04F
:104CC00022462B46BDE8F04D01F000BD5A46404655
:104CD000089B00F0EFFF32463B4601F0D1FA424616
:104CE000534601F001FC10B022462B46BDE8F04DC2
:104CF00001F0FABB009840B3DDE904011F4A204BE4
:104D000001F0BEFA80468A465A4620462946089B4C
:104D100001F0DCFC32463B4601F0B2FA4246534613
:104D200001F0D4FC22462B4601F0D0FC04460D468F
:104D3000DDE90401134A144B01F0A2FA10B0224637
:104D40002B46BDE8F04D01F0C1BC0B465A4620464B
:104D5000294601F0BBFC32463B4601F091FA10B007
:104D600022462B46BDE8F04D01F0BEBB0000F07FAF
:104D7000645F09000000F03F2A270000763C793587
:104D8000EF39EA3D0000E0FE422EE63F5555D53FA3
:104D90000000E03F86EBF9FFDA240000D824000091
:104DA0002DE9F041044630480025814205DA21F022
:104DB0000042824201D805D124B12046BDE8F0412D
:104DC000FEF7B4BDB1F5801F1BDA52EA040008D02B
:104DD00000290FDA0120FBF7E0FABDE8F041FEF709
:104DE000AABD0220FBF7D9FAFEF798FD81F0004139
:104DF000BDE8F0816FF035053622204602F060F8FC
:104E0000044605EB2150A0F2FF32D00F40F2FF33F1
:104E10001B1A0D4663F31F55104401F0CAF90646EC
:104E20000F4629462046FFF70DFE104A104B01F0B1
:104E300027FA04460D460F4A0F4B3046394601F01B
:104E40001FFA22462B4600F035FF05460C460B4A5A
:104E50000B4B3046394601F013FA2A462346BDE88B
:104E6000F04100F027BF00000000F07F0EE526159E
:104E70007BCBDB3F362BF111F3FE593D00609F5099
:104E80001344D33FFDF72EFFFDF79AFFFDF76AFBB2
:104E9000FCE700002DE9F04D1D460C4698B0174682
:104EA00021F0004123F00043002814BF4FF0010C13
:104EB0004FF0000C0CEB440CFE4A0CEB02064FEAE0
:104EC000620C66452BD33E0018BF012606EB450653
:104ED0001644F94A964222D3F84A53EA070C02D004
:104EE000944205D148B918B000201146BDE8F08DB4
:104EF000002808BF4FF0000C01D04FF0010C0CEB64
:104F0000440212F5001F0AD8002F14BF4FF0010C05
:104F10004FF0000C0CEB450212F5001F07D918B03A
:104F20003A462B462146BDE8F04DFEF702BD002271
:104F3000DFF88CA3002CB8BF534526DADFF884C312
:104F40006345A8BF022220DADFF870C39C451CDC51
:104F5000DFF874C30CEB235CBCF1140F08DDCCF15B
:104F6000340627FA06FC0CFA06F6BE420DD108E01C
:104F70005FB9CCF1140623FA06FC0CFA06F69E4241
:104F800003D10CF00102C2F1020251EA000C19D166
:104F9000002D17DA002C18BF022A01D0012A07D0F1
:104FA0000220FBF7FAF918B0BDE8F04DFEF7B6BCE9
:104FB0000220FBF7F2F9FEF7B1FC18B081F00041D6
:104FC000BDE8F08DB7F1000C6CD1534525D104F14B
:104FD000804212F5801201BF00280020B74918B0A6
:104FE00008BFBDE8F08DB548884207DC002DA1BFA1
:104FF0006046294618B0BDE8F08D07E0281E05DAA6
:1050000080F0004118B06046BDE8F08DAF497944AA
:10501000D1E9000118B0BDE8F08DDFF8A0C263450A
:1050200025D1002D1FDA19B1514512D1D8B909E0A7
:10503000002840F0EC82A24A214618B062F31E011B
:10504000BDE8F08D0020214618B060F31E01BDE8D8
:10505000F08D08DA18B02346BDE8F04D0246002076
:10506000614600F0E3BE18B02146BDE8F08D514521
:1050700018DAB5F1804F0DD0A5F1005CBCF1FF5CF2
:1050800010D1B4F1000C0DDB18B06146BDE8F04D55
:1050900000F0F0BC234618B00246BDE8F04D1946BA
:1050A00001F0EEB8060024F0004C3BD1D9B15145D7
:1050B00033D1002C06DD002DA1BF0020514618B0D1
:1050C000BDE8F08D002C01DD002D1BDB002C13DA78
:1050D000002D11DB012A4FF0000014BF78497C49F4
:1050E00018B0BDE8F08D022A18BF002C0AD0012AA2
:1050F00008D1002C06DA0AE0002CB8BF002D11DA26
:10510000012A04D0002018B00146BDE8F08D18B087
:1051100000204FF00041BDE8F08DA1F14050B0F10A
:105120007F601AD0012000EBE47050EA020421D025
:10513000624C521E4FF0000B104304BF4FF0000BA7
:10514000644C654883427CDD644A654893421FDDB8
:10515000884217DB002D25DB37E0002C00DA4AB14E
:10516000022A0CBF01204FF0FF3018B0BDE8F04D0F
:1051700001F01FB80120FBF710F918B0BDE8F04DA1
:10518000FEF7D9BB4D4A8A4202DC002D0ADC1CE046
:10519000814202DA002D18DA04E0484B994220DD02
:1051A000002D12DD0220FBF7F8F8FEF7CAFB0546DA
:1051B0000E46002253465846214601F061F818B0C9
:1051C00066F31E012846BDE8F08D0220FBF7E5F8E6
:1051D000FEF7C2FB0A46214618B062F31E01BDE885
:1051E000F08D00223046614601F070FA80460E468E
:1051F0006FF0010201F064FE4FF05532394B01F0BF
:1052000073F94246334601F03BF80022364B01F079
:105210006BF982464246334604911046194601F026
:105220002FF85246049B01F02BF88A4600904FF06D
:10523000C0422E4B4046314601F022F82C4A2B4BFF
:1052400000E027E0CDE906015146009801F018F88A
:1052500082460191274A284B4046314601F010F81A
:105260005246019B01F032FA82460B4602460591F6
:10527000DDE9060100F01EFDDDE906230026884673
:10528000304601F023FA5246059B01F02DF9024603
:1052900000F07EB90020B1F5801F07DA35223046D4
:1052A000614601F00DFE06466FF0340000EB215020
:1052B00024E00000FFFF1F00FFFF0F000000F03F91
:1052C0000000F07F0000404301FCFFFFFE210000D2
:1052D0000000F0FF0000F0BF0000E0410000F043DC
:1052E000FFFFEF3F5555D53F0000E03F4715F73F23
:1052F000FE822B6544DF5DF80BAE543EA0F2FF301A
:105300000190C1F3130040F07F6141F040510291E0
:10531000FE498842D8BF002004DDFD498142C8BF54
:10532000012001DD0D9008E000200D900198401C47
:1053300001900298A0F5801002900299F5487844F7
:105340000B910D9900EBC100D0E900230F9330467B
:105350000A920B9901F0BAF9CDE90601DDE90A21BB
:1053600030460F9B00F0A6FC02460B460020EA499F
:1053700000F05CFD059102460B460090DDE9060158
:1053800000F07EFF1490E5488A464FF0000878440C
:105390000299006812904FF0005040EA61010D98A8
:1053A0000F9B01EB804000F5002109910A9A1298A9
:1053B00001F08CF932460B9B01F096F842465346B9
:1053C00000F05EFF0646029140465146099B129A44
:1053D00000F056FFDDE9062301F086F83246029B15
:1053E00001F074F9059B009A00F04AFF0091149AAD
:1053F000049053461046194600F042FF0646024606
:10540000C7480B46029106217844FEF77DF8CDE9A6
:105410000510029B32461046194600F031FFDDE9C7
:10542000053200F02DFF05910646534640461946C9
:10543000149A00F03FFC009B049A00F021FF3246D2
:10544000059B00F037FCCDE9051042465346104657
:10545000194600F015FF0022B24B02910A9000F0AD
:1054600029FCDDE9053200F025FC0E464246AD4B35
:10547000404601F02BF9029B0A9A01F027F9DDE979
:10548000053201F031F8424602910A903346104647
:10549000514600F0F5FECDE906015346149A0299F3
:1054A0000A9800F0EDFE8A46029033464246009983
:1054B000049800F0E5FE5346029A00F0FBFB82469A
:1054C0000B4602460591DDE9060100F0F3FBDDE93C
:1054D000062300208846064601F0F8F85246059B50
:1054E00001F002F8824609914FF060428E4B30463F
:1054F000414600F0C5FE049006918C4A8A4B504606
:10550000099900F0BDFE82460291894A894B3046D6
:10551000414600F0B5FE5246029B00F0CBFB864BA5
:105520007B440D9A03EBC203D3E9002300F0C2FBD6
:105530000E900791019800F03CFE0591DDE90613FD
:1055400082460E9A049800F0B5FB7C4A7A440D9B83
:1055500002EBC303D3E900230093029200F0AAFBFD
:105560005246059B00F0A6FB002688465246304670
:10557000059B01F0ABF8009B029A01F0A7F8069B8F
:10558000049A01F0A3F8079B0E9A00F0ADFF0246C3
:1055900000200B4602903846294600F071FE8246F4
:1055A00001912B4638461946029A01F08FF832468F
:1055B000434600F065FE5246019B00F07BFB074628
:1055C0008A46324643462946029800F059FE05466F
:1055D0000E463A46534600F06DFB594A88469142C2
:1055E00021DBA8EB020353EA000210D12A4633461E
:1055F00001F06CF8CDE90401524A534B384651464C
:1056000000F058FBDDE9042300F038FF21D202202E
:10561000FAF7C3FEFEF795F90A46214618B062F381
:105620001E01BDE8F08D494B28F000429A4210D38C
:10563000474A08EB020353EA00027FF4C6AD2A464C
:10564000334601F043F83A46534600F017FF7FF621
:10565000BCAD0022019228F000403E493E4A01EBD9
:105660002051824223DA481C4FF4801121FA00F0C5
:1056700040443A4AC0F30A517A44394BA1F2FF310F
:10568000CB4020EA0303C0F3130040F48010C1F1C3
:105690001401C84012680190B8F1000FBCBF40422D
:1056A00001902846314601F011F805460E462A467B
:1056B00033463846514600F0FDFA4FF000084246A6
:1056C000284B4046059100F0DBFDCDE90601264A56
:1056D000264B4046059900F0D3FD009102902A46E2
:1056E00033464046059900F0F1FF3A46534600F034
:1056F000FBFE1F4A1F4B00F0C3FD009B029A00F007
:10570000D9FA0746884602460B4635E08E980300D4
:105710007AB60B00E61D00000000F03F7E1E000080
:105720004C1D00000000084009C7EE3FFD033ADCB5
:10573000F5015B14E02F3EBE241C0000E81B0000B6
:1057400000009040FE822B654715973C00CC9040AE
:1057500000346F3F01FCFFFF0000E03F941B00009E
:10576000FFFF0F00432EE63F396CA80C615C20BEA2
:10577000EF39FAFE422EE63FDDE9060100F09AFA23
:10578000DDE9062305460E4600F0A0FF3A464346F3
:1057900000F0AAFE0F462A463346009010461946EE
:1057A00000F06EFD824602462E4888460B460521D3
:1057B0007844FDF7A9FE5246434600F061FD2A46B3
:1057C000334600F091FE80468A463B4628463146E5
:1057D000009A00F055FD3B46009A00F06BFA0691E6
:1057E000009000224FF080434046514600F06EFF8B
:1057F0000F460C90424653462846314600F040FD85
:105800003B460C9A00F012FB069B009A00F05EFFEC
:105810002A46334600F05AFF0022134B00F064FE84
:10582000054601980E4601EB00510815002810DCD2
:1058300028463146019A01F043FBFDF70EFC04288F
:1058400008BFFEF789F828463146019A01F038FB77
:1058500005460B4618B02A4658462146BDE8F04D8D
:1058600000F00EBDD41900000000F03F00B5254B3C
:1058700021F0004287B09A4203DC002213460092D6
:105880002BE0214B9A4208D140B94FF00100FAF7C2
:1058900084FDFEF750F807B000BD03DBFEF746F8C5
:1058A00007B000BD02AAFDF7EDFB10F003014FF0B9
:1058B00001000DD0012914D002291AD00DF1080CD5
:1058C0009CE80F00FDF7A2FD07B081F0004100BD8C
:1058D0000DF1080C00909CE80F00FDF76BFE07B07F
:1058E00000BD0DF1080C9CE80F00FDF78FFD07B01F
:1058F00000BD0DF1080C00909CE80F00FDF75AFE6A
:10590000E2E70000FB21E93F0000F07F2DE9F347CB
:105910004E49019820F00048884506DBDDE900018A
:1059200002B0BDE8F047FEF701B80024484D00285A
:10593000BCBF0024474D484ADDE9000121F0004189
:1059400090454ADA454A90450BDA0199FDF785FB07
:10595000042808BFFEF700F8DDE9000102B0BDE849
:10596000F087FEF701F83E4B06460F4698454FF08C
:1059700000021FDA00F09EF98246884632463B4616
:105980001046194600F07CFC5246434600F04EFAA1
:1059900080468A4601223046394601F091FA424655
:1059A000534600F093FE02B022462B46BDE8F04776
:1059B00000F066BC00F07EF902460B4630463946E0
:1059C00000F034FA32463B4600F074F902B0224649
:1059D0002B46BDE8F04700F053BC224A904508DA58
:1059E000FEF788FE02B022462B46BDE8F04700F0E5
:1059F00047BC1D4A7A441D4B1268520F98455DF80A
:105A0000222003DB15D11A4B9A4212D84FF0FF32F5
:105A100001F056FAFEF76EFE06460F4622462B466A
:105A200000F02EFC02B032463B46BDE8F04700F0E5
:105A300027BC0220FAF7B1FCFDF783FF0A46019963
:105A400002B062F31E01BDE8F08700000000F07FA5
:105A50000000E03F0000E0BF000036400000303EA4
:105A60000000F03F422E8640B8170000CE3386403B
:105A70007DF8B98F2DE9F04106460F4600F040FD54
:105A8000041E0D4618BF0120284320F00040C0F13D
:105A90007F6000F1E040C00F0ED0301C18BF012025
:105AA000384320F00040C0F17F6000F1E040C00FBB
:105AB00004BF0120FAF771FC20462946BDE8F081B9
:105AC00010B5164B21F00042012486B09A4203DC47
:105AD0000022134600941CE0114B9A4208D140B9B1
